{
  "contractName": "SimpleStorage",
  "abi": [
    {
      "anonymous": false,
      "inputs": [
        {
          "indexed": false,
          "internalType": "uint256",
          "name": "data",
          "type": "uint256"
        }
      ],
      "name": "Stored0",
      "type": "event"
    },
    {
      "anonymous": false,
      "inputs": [
        {
          "indexed": false,
          "internalType": "uint256",
          "name": "data",
          "type": "uint256"
        }
      ],
      "name": "Stored1",
      "type": "event"
    },
    {
      "anonymous": false,
      "inputs": [
        {
          "indexed": false,
          "internalType": "uint256",
          "name": "data",
          "type": "uint256"
        }
      ],
      "name": "Stored2",
      "type": "event"
    },
    {
      "anonymous": false,
      "inputs": [
        {
          "indexed": false,
          "internalType": "uint256",
          "name": "data",
          "type": "uint256"
        }
      ],
      "name": "Stored3",
      "type": "event"
    },
    {
      "constant": false,
      "inputs": [
        {
          "internalType": "uint256",
          "name": "x",
          "type": "uint256"
        }
      ],
      "name": "set0",
      "outputs": [],
      "payable": false,
      "stateMutability": "nonpayable",
      "type": "function"
    },
    {
      "constant": false,
      "inputs": [
        {
          "internalType": "uint256",
          "name": "x",
          "type": "uint256"
        }
      ],
      "name": "set1",
      "outputs": [],
      "payable": false,
      "stateMutability": "nonpayable",
      "type": "function"
    },
    {
      "constant": false,
      "inputs": [
        {
          "internalType": "uint256",
          "name": "x",
          "type": "uint256"
        }
      ],
      "name": "set2",
      "outputs": [],
      "payable": false,
      "stateMutability": "nonpayable",
      "type": "function"
    },
    {
      "constant": false,
      "inputs": [
        {
          "internalType": "uint256",
          "name": "x",
          "type": "uint256"
        }
      ],
      "name": "set3",
      "outputs": [],
      "payable": false,
      "stateMutability": "nonpayable",
      "type": "function"
    },
    {
      "constant": true,
      "inputs": [],
      "name": "get",
      "outputs": [
        {
          "internalType": "uint256",
          "name": "",
          "type": "uint256"
        }
      ],
      "payable": false,
      "stateMutability": "view",
      "type": "function"
    }
  ],
  "bytecode": "0x608060405234801561001057600080fd5b50610274806100206000396000f3fe608060405234801561001057600080fd5b50600436106100575760003560e01c80636d4ce63c1461005c5780639bc39d3c1461007a578063a2e0eccb146100a8578063ce01e1ec146100d6578063f26feec914610104575b600080fd5b610064610132565b6040518082815260200191505060405180910390f35b6100a66004803603602081101561009057600080fd5b810190808035906020019092919050505061013b565b005b6100d4600480360360208110156100be57600080fd5b810190808035906020019092919050505061017c565b005b610102600480360360208110156100ec57600080fd5b81019080803590602001909291905050506101bd565b005b6101306004803603602081101561011a57600080fd5b81019080803590602001909291905050506101fe565b005b60008054905090565b806000819055507f880d051e24b6e624c727467615be7e64267276d581f1041e6acee16cc11d7966816040518082815260200191505060405180910390a150565b806000819055507fb705e4776a7e7a17716234c441e33d62b42feb39b218e46ecc16e79c8999b091816040518082815260200191505060405180910390a150565b806000819055507fa7e69279791358a4df12fc2237633b6f9abff841452d99ee5dd5941f35aa8c9f816040518082815260200191505060405180910390a150565b806000819055507fb4e895ebf9b5d2336a51f6b9f91e3b99bf5df2e8f3b34056804b781d10f00c3c816040518082815260200191505060405180910390a15056fea265627a7a7231582043aa133d72926be9dfa91358d30e5078788666ea009090fb1e113a6177d4de3964736f6c63430005100032",
  "source": "// SPDX-License-Identifier: MIT\npragma solidity >=0.4.21 <8.10.0;\n\ncontract SimpleStorage {\n  uint storedData;\n\n  event Stored0(uint data);\n  event Stored1(uint data);\n  event Stored2(uint data);\n  event Stored3(uint data);\n\n  function set0(uint x) public {\n    storedData = x;\n    emit Stored0(x);\n  }\n\n  function set1(uint x) public {\n    storedData = x;\n    emit Stored1(x);\n  }\n\n  function set2(uint x) public {\n    storedData = x;\n    emit Stored2(x);\n  }\n\n  function set3(uint x) public {\n    storedData = x;\n    emit Stored3(x);\n  }\n\n  function get() public view returns (uint) {\n    return storedData;\n  }\n}\n",
  "sourcePath": "/tmp/web3.js/contracts/SimpleStorage.sol",
  "compiler": {
    "name": "solc",
    "version": "0.5.16+commit.9c3226ce.Emscripten.clang"
  },
  "schemaVersion": "3.4.5",
  "updatedAt": "2022-04-26T17:38:46.774Z",
  "networkType": "ethereum",
  "devdoc": {
    "methods": {}
  },
  "userdoc": {
    "methods": {}
  }
}